{
  "contractName": "NFT",
  "abi": [
    {
      "inputs": [],
      "payable": false,
      "stateMutability": "nonpayable",
      "type": "constructor"
    },
    {
      "anonymous": false,
      "inputs": [
        {
          "indexed": true,
          "internalType": "address",
          "name": "from",
          "type": "address"
        },
        {
          "indexed": true,
          "internalType": "address",
          "name": "to",
          "type": "address"
        },
        {
          "indexed": false,
          "internalType": "uint256",
          "name": "value",
          "type": "uint256"
        }
      ],
      "name": "Transfer",
      "type": "event"
    },
    {
      "constant": true,
      "inputs": [
        {
          "internalType": "uint256",
          "name": "",
          "type": "uint256"
        }
      ],
      "name": "NFTs",
      "outputs": [
        {
          "internalType": "string",
          "name": "",
          "type": "string"
        }
      ],
      "payable": false,
      "stateMutability": "view",
      "type": "function"
    },
    {
      "constant": true,
      "inputs": [],
      "name": "name",
      "outputs": [
        {
          "internalType": "string",
          "name": "",
          "type": "string"
        }
      ],
      "payable": false,
      "stateMutability": "view",
      "type": "function"
    },
    {
      "constant": true,
      "inputs": [],
      "name": "symbol",
      "outputs": [
        {
          "internalType": "string",
          "name": "",
          "type": "string"
        }
      ],
      "payable": false,
      "stateMutability": "view",
      "type": "function"
    },
    {
      "constant": false,
      "inputs": [
        {
          "internalType": "string",
          "name": "_NFT",
          "type": "string"
        }
      ],
      "name": "mint",
      "outputs": [],
      "payable": false,
      "stateMutability": "nonpayable",
      "type": "function"
    },
    {
      "constant": true,
      "inputs": [
        {
          "internalType": "address",
          "name": "_owner",
          "type": "address"
        }
      ],
      "name": "balanceOf",
      "outputs": [
        {
          "internalType": "uint256",
          "name": "",
          "type": "uint256"
        }
      ],
      "payable": false,
      "stateMutability": "view",
      "type": "function"
    },
    {
      "constant": true,
      "inputs": [
        {
          "internalType": "uint256",
          "name": "_tokenId",
          "type": "uint256"
        }
      ],
      "name": "ownerOf",
      "outputs": [
        {
          "internalType": "address",
          "name": "",
          "type": "address"
        }
      ],
      "payable": false,
      "stateMutability": "view",
      "type": "function"
    },
    {
      "constant": true,
      "inputs": [],
      "name": "totalSupply",
      "outputs": [
        {
          "internalType": "uint256",
          "name": "",
          "type": "uint256"
        }
      ],
      "payable": false,
      "stateMutability": "view",
      "type": "function"
    },
    {
      "constant": true,
      "inputs": [
        {
          "internalType": "uint256",
          "name": "index",
          "type": "uint256"
        }
      ],
      "name": "tokenByIndex",
      "outputs": [
        {
          "internalType": "uint256",
          "name": "",
          "type": "uint256"
        }
      ],
      "payable": false,
      "stateMutability": "view",
      "type": "function"
    },
    {
      "constant": true,
      "inputs": [
        {
          "internalType": "address",
          "name": "owner",
          "type": "address"
        },
        {
          "internalType": "uint256",
          "name": "index",
          "type": "uint256"
        }
      ],
      "name": "tokenOfOwnerByIndex",
      "outputs": [
        {
          "internalType": "uint256",
          "name": "",
          "type": "uint256"
        }
      ],
      "payable": false,
      "stateMutability": "view",
      "type": "function"
    },
    {
      "constant": false,
      "inputs": [
        {
          "internalType": "address",
          "name": "_from",
          "type": "address"
        },
        {
          "internalType": "address",
          "name": "_to",
          "type": "address"
        },
        {
          "internalType": "uint256",
          "name": "_tokenId",
          "type": "uint256"
        }
      ],
      "name": "transferFrom",
      "outputs": [
        {
          "internalType": "bool",
          "name": "",
          "type": "bool"
        }
      ],
      "payable": false,
      "stateMutability": "nonpayable",
      "type": "function"
    }
  ],
  "bytecode": "0x60806040526040518060400160405280600881526020017f4e46542047616d650000000000000000000000000000000000000000000000008152506000908051906020019062000051929190620000b4565b506040518060400160405280600481526020017f4e46544700000000000000000000000000000000000000000000000000000000815250600190805190602001906200009f929190620000b4565b50348015620000ad57600080fd5b5062000163565b828054600181600116156101000203166002900490600052602060002090601f016020900481019282601f10620000f757805160ff191683800117855562000128565b8280016001018555821562000128579182015b82811115620001275782518255916020019190600101906200010a565b5b5090506200013791906200013b565b5090565b6200016091905b808211156200015c57600081600090555060010162000142565b5090565b90565b6115c580620001736000396000f3fe608060405234801561001057600080fd5b506004361061009e5760003560e01c80636352211e116100665780636352211e1461026e57806370a08231146102dc57806395d89b4114610334578063a3c0b95b146103b7578063d85d3d271461045e5761009e565b806306fdde03146100a357806318160ddd1461012657806323b872dd146101445780632f745c59146101ca5780634f6ccce71461022c575b600080fd5b6100ab610519565b6040518080602001828103825283818151815260200191508051906020019080838360005b838110156100eb5780820151818401526020810190506100d0565b50505050905090810190601f1680156101185780820380516001836020036101000a031916815260200191505b509250505060405180910390f35b61012e6105b7565b6040518082815260200191505060405180910390f35b6101b06004803603606081101561015a57600080fd5b81019080803573ffffffffffffffffffffffffffffffffffffffff169060200190929190803573ffffffffffffffffffffffffffffffffffffffff169060200190929190803590602001909291905050506105c4565b604051808215151515815260200191505060405180910390f35b610216600480360360408110156101e057600080fd5b81019080803573ffffffffffffffffffffffffffffffffffffffff169060200190929190803590602001909291905050506109e3565b6040518082815260200191505060405180910390f35b6102586004803603602081101561024257600080fd5b8101908080359060200190929190505050610af9565b6040518082815260200191505060405180910390f35b61029a6004803603602081101561028457600080fd5b8101908080359060200190929190505050610b96565b604051808273ffffffffffffffffffffffffffffffffffffffff1673ffffffffffffffffffffffffffffffffffffffff16815260200191505060405180910390f35b61031e600480360360208110156102f257600080fd5b81019080803573ffffffffffffffffffffffffffffffffffffffff169060200190929190505050610c5e565b6040518082815260200191505060405180910390f35b61033c610d2c565b6040518080602001828103825283818151815260200191508051906020019080838360005b8381101561037c578082015181840152602081019050610361565b50505050905090810190601f1680156103a95780820380516001836020036101000a031916815260200191505b509250505060405180910390f35b6103e3600480360360208110156103cd57600080fd5b8101908080359060200190929190505050610dca565b6040518080602001828103825283818151815260200191508051906020019080838360005b83811015610423578082015181840152602081019050610408565b50505050905090810190601f1680156104505780820380516001836020036101000a031916815260200191505b509250505060405180910390f35b6105176004803603602081101561047457600080fd5b810190808035906020019064010000000081111561049157600080fd5b8201836020820111156104a357600080fd5b803590602001918460018302840111640100000000831117156104c557600080fd5b91908080601f016020809104026020016040519081016040528093929190818152602001838380828437600081840152601f19601f820116905080830192505050505050509192919290505050610e83565b005b60008054600181600116156101000203166002900480601f0160208091040260200160405190810160405280929190818152602001828054600181600116156101000203166002900480156105af5780601f10610584576101008083540402835291602001916105af565b820191906000526020600020905b81548152906001019060200180831161059257829003601f168201915b505050505081565b6000600680549050905090565b60008073ffffffffffffffffffffffffffffffffffffffff166002600084815260200190815260200160002060009054906101000a900473ffffffffffffffffffffffffffffffffffffffff1673ffffffffffffffffffffffffffffffffffffffff16141561069b576040517f08c379a000000000000000000000000000000000000000000000000000000000815260040180806020018281038252601b8152602001807f4552433732313a20746f6b656e20616c7265616479206578697374000000000081525060200191505060405180910390fd5b600073ffffffffffffffffffffffffffffffffffffffff168373ffffffffffffffffffffffffffffffffffffffff16141561073e576040517f08c379a000000000000000000000000000000000000000000000000000000000815260040180806020018281038252601c8152602001807f4552433732313a206164647265737320646f6e7420657863697374200000000081525060200191505060405180910390fd5b6002600083815260200190815260200160002060009054906101000a900473ffffffffffffffffffffffffffffffffffffffff1673ffffffffffffffffffffffffffffffffffffffff168473ffffffffffffffffffffffffffffffffffffffff16146107f5576040517f08c379a00000000000000000000000000000000000000000000000000000000081526004018080602001828103825260298152602001806115686029913960400191505060405180910390fd5b826002600084815260200190815260200160002060006101000a81548173ffffffffffffffffffffffffffffffffffffffff021916908373ffffffffffffffffffffffffffffffffffffffff16021790555061089a6001600360008773ffffffffffffffffffffffffffffffffffffffff1673ffffffffffffffffffffffffffffffffffffffff1681526020019081526020016000205461104f90919063ffffffff16565b600360008673ffffffffffffffffffffffffffffffffffffffff1673ffffffffffffffffffffffffffffffffffffffff168152602001908152602001600020819055506109306001600360008673ffffffffffffffffffffffffffffffffffffffff1673ffffffffffffffffffffffffffffffffffffffff1681526020019081526020016000205461106f90919063ffffffff16565b600360008573ffffffffffffffffffffffffffffffffffffffff1673ffffffffffffffffffffffffffffffffffffffff168152602001908152602001600020819055508273ffffffffffffffffffffffffffffffffffffffff168473ffffffffffffffffffffffffffffffffffffffff167fddf252ad1be2c89b69c2b068fc378daa952ba7f163c4a11628f55a4df523b3ef846040518082815260200191505060405180910390a3600190509392505050565b6000600860008473ffffffffffffffffffffffffffffffffffffffff1673ffffffffffffffffffffffffffffffffffffffff168152602001908152602001600020805490508210610a9c576040517f08c379a000000000000000000000000000000000000000000000000000000000815260040180806020018281038252601e8152602001807f676c6f62616c20696e73646578206973206f7574206f6620626f75647321000081525060200191505060405180910390fd5b600860008473ffffffffffffffffffffffffffffffffffffffff1673ffffffffffffffffffffffffffffffffffffffff1681526020019081526020016000208281548110610ae657fe5b9060005260206000200154905092915050565b6000610b036105b7565b8210610b77576040517f08c379a000000000000000000000000000000000000000000000000000000000815260040180806020018281038252601e8152602001807f676c6f62616c20696e73646578206973206f7574206f6620626f75647321000081525060200191505060405180910390fd5b60068281548110610b8457fe5b90600052602060002001549050919050565b6000806002600084815260200190815260200160002060009054906101000a900473ffffffffffffffffffffffffffffffffffffffff169050600073ffffffffffffffffffffffffffffffffffffffff168173ffffffffffffffffffffffffffffffffffffffff161415610c55576040517f08c379a00000000000000000000000000000000000000000000000000000000081526004018080602001828103825260258152602001806114fb6025913960400191505060405180910390fd5b80915050919050565b60008073ffffffffffffffffffffffffffffffffffffffff168273ffffffffffffffffffffffffffffffffffffffff161415610ce5576040517f08c379a00000000000000000000000000000000000000000000000000000000081526004018080602001828103825260258152602001806115436025913960400191505060405180910390fd5b600360008373ffffffffffffffffffffffffffffffffffffffff1673ffffffffffffffffffffffffffffffffffffffff168152602001908152602001600020549050919050565b60018054600181600116156101000203166002900480601f016020809104026020016040519081016040528092919081815260200182805460018160011615610100020316600290048015610dc25780601f10610d9757610100808354040283529160200191610dc2565b820191906000526020600020905b815481529060010190602001808311610da557829003601f168201915b505050505081565b60048181548110610dd757fe5b906000526020600020016000915090508054600181600116156101000203166002900480601f016020809104026020016040519081016040528092919081815260200182805460018160011615610100020316600290048015610e7b5780601f10610e5057610100808354040283529160200191610e7b565b820191906000526020600020905b815481529060010190602001808311610e5e57829003601f168201915b505050505081565b600015156005826040518082805190602001908083835b60208310610ebd5780518252602082019150602081019050602083039250610e9a565b6001836020036101000a038019825116818451168082178552505050505050905001915050908152602001604051809103902060009054906101000a900460ff16151514610f73576040517f08c379a00000000000000000000000000000000000000000000000000000000081526004018080602001828103825260198152602001807f4e46543a206572726f7220616c7265616479206578636973740000000000000081525060200191505060405180910390fd5b6004819080600181540180825580915050906001820390600052602060002001600090919290919091509080519060200190610fb0929190611455565b505060006001600480549050039050610fc9338261108e565b60016005836040518082805190602001908083835b602083106110015780518252602082019150602081019050602083039250610fde565b6001836020036101000a038019825116818451168082178552505050505050905001915050908152602001604051809103902060006101000a81548160ff0219169083151502179055505050565b60008282111561105e57600080fd5b600082840390508091505092915050565b60008082840190508381101561108457600080fd5b8091505092915050565b600073ffffffffffffffffffffffffffffffffffffffff168273ffffffffffffffffffffffffffffffffffffffff161415611114576040517f08c379a00000000000000000000000000000000000000000000000000000000081526004018080602001828103825260238152602001806115206023913960400191505060405180910390fd5b600073ffffffffffffffffffffffffffffffffffffffff166002600083815260200190815260200160002060009054906101000a900473ffffffffffffffffffffffffffffffffffffffff1673ffffffffffffffffffffffffffffffffffffffff16146111e9576040517f08c379a000000000000000000000000000000000000000000000000000000000815260040180806020018281038252601b8152602001807f4552433732313a20746f6b656e20616c7265616479206578697374000000000081525060200191505060405180910390fd5b816002600083815260200190815260200160002060006101000a81548173ffffffffffffffffffffffffffffffffffffffff021916908373ffffffffffffffffffffffffffffffffffffffff16021790555061128e6001600360008573ffffffffffffffffffffffffffffffffffffffff1673ffffffffffffffffffffffffffffffffffffffff1681526020019081526020016000205461106f90919063ffffffff16565b600360008473ffffffffffffffffffffffffffffffffffffffff1673ffffffffffffffffffffffffffffffffffffffff168152602001908152602001600020819055508173ffffffffffffffffffffffffffffffffffffffff16600073ffffffffffffffffffffffffffffffffffffffff167fddf252ad1be2c89b69c2b068fc378daa952ba7f163c4a11628f55a4df523b3ef836040518082815260200191505060405180910390a36113418282611345565b5050565b6006805490506007600083815260200190815260200160002081905550600860008373ffffffffffffffffffffffffffffffffffffffff1673ffffffffffffffffffffffffffffffffffffffff168152602001908152602001600020819080600181540180825580915050906001820390600052602060002001600090919290919091505550600860008373ffffffffffffffffffffffffffffffffffffffff1673ffffffffffffffffffffffffffffffffffffffff16815260200190815260200160002080549050600960008381526020019081526020016000208190555060068190806001815401808255809150509060018203906000526020600020016000909192909190915055505050565b828054600181600116156101000203166002900490600052602060002090601f016020900481019282601f1061149657805160ff19168380011785556114c4565b828001600101855582156114c4579182015b828111156114c35782518255916020019190600101906114a8565b5b5090506114d191906114d5565b5090565b6114f791905b808211156114f35760008160009055506001016114db565b5090565b9056fe455243373231206f776e65724f663a20776520646f6e74206861766520616e206f776e65724552433732313a206d696e74696e6720746f20746865207a65726f20616464726573734552433732312062616c616e63654f663a2041646472657373206973206e6f74207a65726f4552433732313a20596f75206e65656420746f2061637475616c6c79206861766520746865204e4654a265627a7a72315820a85748a428654a18703db0f4c0d37384b290ccb98cde78db661b7f3cc126ff3364736f6c63430005100032",
  "source": "pragma solidity ^0.5.0;\n\nimport \"openzeppelin-solidity/contracts/math/SafeMath.sol\";\n\n\ncontract NFT  {\n\n    using SafeMath for uint;\n\n\n    string public name = \"NFT Game\";\n\n    string public symbol = \"NFTG\";\n\n    //mapping from token ID to owner address\n    mapping (uint256 => address) private _tokenOwner;\n\n    //mapping from owner to number of owened tokens\n    mapping (address => uint256) private _OwnedTokensCount;\n\n    event Transfer(address indexed from, address indexed to,uint256 value);\n\n\n    // array to store the NFTs\n    string [] public NFTs;\n    mapping(string => bool) private _NFT_exists;\n\n    constructor() public {\n        \n    }\n\n    function _mint(address _to, uint256 _tokenId) internal {\n        require(_to!=address(0), 'ERC721: minting to the zero address');\n        require(_tokenOwner[_tokenId]==address(0),'ERC721: token already exist'); // Require that this token ID dont exist \n\n        _tokenOwner[_tokenId] = _to;\n        _OwnedTokensCount[_to] = _OwnedTokensCount[_to].add(1);\n\n\n        emit Transfer(address(0),_to,_tokenId);\n\n        _addTokensToAllTokenEnumarate(_to,_tokenId);\n    }\n\n    function mint(string memory _NFT) public {\n\n        require(_NFT_exists[_NFT]==false,'NFT: error already excist');\n     \n        NFTs.push(_NFT);\n\n\n        uint _id = NFTs.length - 1;\n\n        _mint(msg.sender,_id);\n\n\n        _NFT_exists[_NFT] = true;\n\n        \n    }\n\n\n    function balanceOf(address _owner) public view returns (uint256) {\n        require(_owner!=address(0), 'ERC721 balanceOf: Address is not zero');\n\n        return _OwnedTokensCount[_owner];\n    }\n\n    function ownerOf(uint256 _tokenId) public view returns (address) {\n        address _owner = _tokenOwner[_tokenId];\n\n        require(_owner!=address(0), 'ERC721 ownerOf: we dont have an owner');\n\n        return _owner;\n    }\n\n\n\n    //  ---------------------------- enumerable of the Tokens ----------------\n\n    uint256[] private _allTokens; // We have all the tokens that was minted\n\n\n    mapping(uint256 => uint256) private _allTokensIndex; // maping from tokenId to position in _allTokens Array\n\n    mapping(address => uint256[]) private _ownedTokens; // maping from owner to list of all owner token ids\n\n    mapping(uint256 => uint256) private _ownedTokensIndex;// mapping from token ID to findex of the owner tokens list \n    // basically we say for the tokenId were is on the list of the users tokens\n\n\n    function _addTokensToAllTokenEnumarate( address to, uint256 tokenId) private {\n        _allTokensIndex[tokenId] = _allTokens.length;\n\n        _ownedTokens[to].push(tokenId);\n        _ownedTokensIndex[tokenId] = _ownedTokens[to].length;\n\n        _allTokens.push(tokenId);\n    }\n\n    function totalSupply() public view returns(uint256){\n        return _allTokens.length;\n    }\n\n    function tokenByIndex(uint256 index) public view returns (uint256){\n        require(index<totalSupply(),\"global insdex is out of bouds!\");\n        return _allTokens[index];\n    }\n\n    function tokenOfOwnerByIndex(address owner,uint256 index) public view returns (uint256){\n        require(index<_ownedTokens[owner].length,\"global insdex is out of bouds!\");\n\n        return _ownedTokens[owner][index];\n    }\n    //  ---------------------------- enumerable of the Tokens ----------------\n\n\n    //  ---------------------------- Transfer NFTs ----------------\n\n    mapping (uint256 => address) private _tokenApprovals;\n\n\n    function transferFrom (address _from, address _to,uint256 _tokenId) public returns (bool){\n\n        require(_tokenOwner[_tokenId]!=address(0),'ERC721: token already exist'); // Require that this token ID dont exist \n\n        require(_to!=address(0),'ERC721: address dont excist '); // Require that this token ID dont exist \n\n        require(_from==_tokenOwner[_tokenId],'ERC721: You need to actually have the NFT'); // Require that this token ID dont exist \n\n\n        \n        _tokenOwner[_tokenId] = _to; // change who is the owner of this tokenId\n\n        _OwnedTokensCount[_from] = _OwnedTokensCount[_from].sub(1);\n        _OwnedTokensCount[_to] = _OwnedTokensCount[_to].add(1);\n\n        //delete element from _ownedTokens\n\n\n        emit Transfer(_from,_to,_tokenId);\n\n\n        return (true);\n    }\n\n    //  ---------------------------- Transfer NFTs ----------------\n\n\n}",
  "sourcePath": "/Users/miltos/Documents/10_DappCryptoProject/blockchain_game_numbers/src/contracts/NFT.sol",
  "compiler": {
    "name": "solc",
    "version": "0.5.16+commit.9c3226ce.Emscripten.clang"
  },
  "schemaVersion": "3.4.4",
  "updatedAt": "2022-01-02T23:16:23.255Z",
  "networkType": "ethereum",
  "devdoc": {
    "methods": {}
  },
  "userdoc": {
    "methods": {}
  }
}